:10000000DEC0F7C0F6C0F5C0F4C0F3C037C1F1C020
:10001000F0C0EFC0EEC0EDC0ECC0EBC0EAC0E9C07C
:10002000E8C0E7C0E6C01AC11BC11CC11DC11EC18A
:100030001FC120C121C124187EDBFFDB99C3247EB0
:10004000DBFFA59981C30066FFFFFF7E3C1800001F
:10005000143E3E1C0800183C7EDBFF244224183C62
:100060007EDBFF245AA5A800990087006E0020209F
:1000700020485454503A2F2F54494E4B45524C4F20
:10008000472E434F4D20002020205A4F4D424945D6
:100090005320414845414420002020204D414B45FC
:1000A00020535455464620002020204920414D2011
:1000B0004E4F54204120424F4D422120000000006D
:1000C000011700000103000303000000030000000B
:1000D000030000000300000003030000010E1100F4
:1000E00002110E000200000003081C0803180000A3
:1000F000010404000310000001180403031F111F72
:1001000003011F00021D15170315150E030F081F0D
:100110000317151D031F121E03110907031F151FC7
:10012000030F091F030A0000011A00000108140050
:10013000021414000214080002150502030E17161B
:10014000031F091E031F150A030E1111031F110EB1
:10015000030E1515031E0505030E111D031F041FB5
:10016000031F00000108100F031F041B030F1010D2
:10017000031F021F031F011E030E110E031F09069A
:1001800003061906031F09160312150903011F01AF
:10019000030F100F031F100F031F081F031B041B67
:1001A00003031C0303191513031F11000203041892
:1001B00003111F0002111F00021F1F1F0300112443
:1001C0001FBECFEDCDBF10E0A0E6B0E0EAE7F6E05D
:1001D00003C0C89531960D92A036B107D1F710E053
:1001E000A0E6B0E001C01D92AD3AB107E1F784D1BD
:1001F00043C206CF82E08BBB8BEC88BB84E282BB20
:100200008091700099270196282F392F887F91704F
:10021000281B390B932F822F20937000E22FFF278A
:10022000E859FF4FE081E7FDD89AFF27E6FDC59A20
:10023000E5FDC49AE4FD949AE3FDC29AE2FD939A27
:10024000E1FD919AE0FD909A9927AA27BB27F92F03
:10025000E82F089790F4ED5EFF4F09949598089564
:10026000D9980895C098089592980895C7980895C8
:10027000C1980895C6980895C39808951F920F9243
:100280000FB60F9211242F933F934F935F936F9369
:100290007F938F939F93AF93BF93EF93FF93AADFC7
:1002A000809166009091670001969093670080931B
:1002B0006600FF91EF91BF91AF919F918F917F91D8
:1002C0006F915F914F913F912F910F900FBE0F90C3
:1002D0001F901895282F392F220F331F1092670077
:1002E00010926600809166009091670082179307D4
:1002F000C8F30895382F20E0A8E6B0E0E22FE61B0F
:10030000E83038F4FF27E7FDF095E40FF51FE081B2
:1003100001C0E0E0FF27832F992787FD909537FDE7
:1003200006C002C0F595E7958A95E2F708C090955A
:1003300081959F4F02C0EE0FFF1F8A95E2F7ED9364
:100340002F5F2830DCF20895CF93DF93E8E6F0E0EA
:1003500047E08081880F8193415047FFFACF909109
:10036000650080916400981749F5809163008F5F64
:100370008093630090916100891739F410926300B3
:10038000809160008F5F8093600080916300E82F10
:10039000FF27EF58FF4F8081805280936200E82F43
:1003A000FF27EE0FFF1FEE0FFF1FE054FF4FC89512
:1003B000802D809364001092650032C080916200AD
:1003C000E82FFF27EE0FFF1FEE0FFF1FE90FF11DB4
:1003D000E354FF4F9F5F90936500C895802DA82F31
:1003E000BB27C1E0D0E0E8E6F0E060E070E046E086
:1003F0002C2F3D2F062E02C0220F331F0A94E2F746
:100400008A2F9B2F822393238217930719F48181CC
:100410008160818341506F5F7F4F319647FFE8CF06
:10042000DF91CF910895E8E6F0E087E011928150E6
:1004300087FFFCCF089548E050E0682F792F81E7CF
:1004400090E004D10895DF92EF92FF920F931F93F3
:10045000CF93082F192FE62EF72EDD24912F802F12
:10046000EADFC8EF41E750E060E08C2F43DF80E532
:1004700090E030DFCF5F1C16ACF788EC90E02ADF0D
:100480009F2D8E2DD8DF41E750E060E0862F32DFD0
:1004900088EC90E01FDF912F802FCDDF41E750E007
:1004A00060E0862F27DF88EC90E014DF9F2D8E2DF3
:1004B000C2DF41E750E060E0862F1CDF88EC90E06F
:1004C00009DF912F802FB7DFC0E041E750E060E007
:1004D0008C2F10DF80E590E0FDDECF5FC830ACF3FD
:1004E000D39489E08D1508F0B9CFCF911F910F916A
:1004F000FF90EF90DF900895CFEDD0E0DEBFCDBF4D
:1005000000E083B7826083BF89B7826089BF8AB306
:1005100083608ABB87B38FEF87BB81B38F6381BB57
:1005200083E08BBB8BEC88BB84E282BB969AE0E5D0
:10053000F3ECC4E095988E2F9F2F0197F1F7959AD1
:100540008E2F9F2F0197F1F7C150C7FFF3CFE1998D
:10055000FECF80E090E08EBBE09A8DB3182F8150E3
:10056000873010F011E0012F212F2F5FE199FECF8E
:100570001CBA80E090E08EBB2DBB0FB6F894E29AD7
:10058000E19A0FBE7894E12FFF27E230F10581F068
:10059000E330F10524F4E130F10529F02AC0E3301D
:1005A000F10509F126C066E570E08EE590E01FC018
:1005B000C9E086E490E03FDF41E750E060E0862F4D
:1005C00099DE8EEE92E086DE8EE490E034DF41E745
:1005D00050E060E0862F8EDE84EB90E07BDEC15041
:1005E000C7FFE7CF29C066E370E08EE390E02BDF22
:1005F00023C0EE0FFF1FE25AFF4FC895802D3196A2
:10060000C895902D682F792F81E790E02BD0E1E7F6
:10061000F0E001900020E9F73197E157F040E093D6
:10062000610080916000853028F48EDE88E790E0DC
:1006300051DEF7CF10926000002309F4A4CF1F5FB2
:10064000F2DE183008F49FCF11E09DCFE62FF72F90
:10065000A82FB92F03C0C89531960D924150504034
:10066000D0F70895E62FF72FA82FB92FC895319608
:0A0670000D920020D9F70895FFCF86
:00000001FF
